:020000020000FC
:0200000017C027
:10002C000C9489000FE50DBF08E00EBF07E00ABB7A
:10003C000FEF04BB00EF01BB30E050E060E070E07C
:10004C00D0E0E0E0F0E04EE9A1E0C0E0B0E080E01C
:10005C0010E052D090B3913039F0923039F09430A6
:10006C0039F09830C1F018C0789416C0F89414C0C8
:10007C00C03011F0C13021F0BED0C1E010E00CC096
:10008C00BAD011E0C0E0DF93EF93FF938CD0FF91D7
:10009C00EF91DF9101C0A9E001E00BBB8A1711F4CD
:1000AC00539580E0C13021F43D2F47D0D32F04C0AD
:1000BC00352FD52F42D0532F05BB35D002E00BBBCB
:1000CC00C13021F43E2F39D0E32F04C0362FE62F58
:1000DC0034D0632F005805BB26D004E00BBBC130D5
:1000EC0021F43F2F2AD0F32F04C0372FF72F25D020
:1000FC00732F05BB18D0AECF05E003BF01E008BFDE
:10010C0001E009BF08950F930FB70F9342BF08B7D3
:10011C0000FFC13019F4B3950B2F08BB83950F91D9
:10012C000FBF0F9118951F932F9315E021E01150DD
:10013C002040E8F72F911F9108953A3051F430E0A8
:10014C0063956A3031F460E073957A3011F460E0B5
:10015C0070E0303031F1313091F0323091F0333099
:10016C0091F0343091F0353091F0363091F03730E9
:10017C0091F0383091F0393091F03F3F91F006E03A
:10018C0008950BE508950FE4089506E608950DE62D
:10019C0008950DE7089507E008950FE708950FE619
:1001AC0008950FE308952B2F50E060E070E02A30A3
:1001BC0018F0243618F005C0522F06C063952A504B
:1001CC00F6CF73952456F3CF01E00BBB352F23D01C
:1001DC00532F05BBA8DF02E00BBB362F1CD0632FBF
:1001EC00005805BBA0DF04E00BBB372F14D0732FD6
:1001FC0005BB99DF08954F935F936F9344E152E3EE
:10020C0064E66A95F1F75A95D9F74A95C1F76F915B
:10021C005F914F910895303031F1313091F032309F
:10022C0091F0333091F0343091F0353091F036302C
:10023C0091F0373091F0383091F0393091F03F3FF8
:10024C0091F006E008950BE508950FE4089506E695
:10025C0008950DE608950DE7089507E008950FE75A
:08026C0008950FE608950FE369
:00000001FF
